:02000002D0002C
:1040000000400D00B86E0D00000006000C00050118
:084010000401DE0500000000C0
:0440180040610D00F6
:10401C0009480A49884208B505D0094A824202D0AB
:10402C00121A02F043F80748074A0021121A02F04C
:10403C0048F8014808BD00BF28DF0320146A0D00B2
:10404C00A4E30320A4E30320F0E7032070B501F000
:10405C0041FC074C074BE41AA40800251E46A54258
:10406C0004D056F8253098470135F8E770BD00BFED
:10407C00086A0D00C8690D0000F05AB808B500F0C8
:10408C001CF8BDE8084001F0E7BB00F0F1BF00F000
:10409C00EFBF000008B5034A00210C2000F05CFFC4
:1040AC00FEE700BF454E0D000078B0FA80F04009E5
:1040BC0070470123037070477047704710B51A4C56
:1040CC00204600F0AFFD204600F02EFD00221146E8
:1040DC002046012300F0AEFB2046012300227F2165
:1040EC0000F0A8FB204601233F22002100F0A2FB98
:1040FC0001233F2220467F2100F09CFB204601211A
:10410C0000F010FA2046012100F011FA20461E2280
:10411C001B2100F004FA2046044901F053FC204610
:10412C00BDE8104000F000BDA8E3032054610D0071
:10413C0010B501F0CFFA0E4C4FF4165101F0BEFA47
:10414C0001F088FD01F04CFA3C220221204600F0DF
:10415C0019FC204600F066FD204600F0E5FCFFF758
:10416C00ADFF044BBDE81040186801F054BB00BF14
:10417C00A8E3032028DF032010B52421044601F016
:10418C002BFE204610BD000010B5074C00F0B4FE0D
:10419C004FF0FF31204600F097FB2046034A0449BC
:1041AC00BDE8104001F00BBEA8E30320A4E30320FC
:1041BC00C5400D002DE9F04F85B01E46BDF93830D5
:1041CC00BDF83CA015469A1A002AB8BF524200927C
:1041DC00721A002AB8BF524201920C46009A0199F9
:1041EC008A42814605DD32461E46134622462C463F
:1041FC001546B44205DD2A461D4613462246344672
:10420C0016465A1B002AB8BF5242C4EB06089D4200
:10421C00B4BF01234FF0FF331FFA88F802930392C7
:10422C000FFA88F7022297FBF2F7B4421FDC019ACF
:10423C00009B9342D9F80030C8BF2246D3F810B087
:10424C00C8BF29465346DCBF2A4621464846D847B4
:10425C00039BFF1ABBB21FB2002F05DA029A08EBC0
:10426C00030715442DB23FB2013424B2DDE705B08B
:10427C00BDE8F08F2DE9F347BDF82C600768BDF958
:10428C0028A000960446FF6991460D469846B8470B
:10429C00236800960AF1FF324A44DF6929464346F7
:1042AC00204612B2B847236800969F694A46534687
:1042BC0029462046B84723680A9608F1FF3129445D
:1042CC009D694A46534609B22046AC4602B0BDE849
:1042DC00F047604737B5013B13440468BDF81850EC
:1042EC0001951BB2009364690B46A04703B030BD27
:1042FC0037B5BDF8185004688DE82400013B0B4419
:10430C0064691BB2A04703B030BD2DE9F347BDF97A
:10431C002880BDF82C90054617460C4601EB030A85
:10432C0054450BDA2B68CDF800909E692146434624
:10433C003A4628460134B04724B2F1E702B0BDE852
:10434C00F08713B5B0F90E20046801910092002299
:10435C00B0F90C30646A1146A04702B010BD70472A
:10436C0030B501810024084D42818181C2814FF614
:10437C00FF71012244600560447604824482027617
:10438C00C1828182827630BD6C610D002DE9F04FC7
:10439C008FB005460691BDF860100791BDF864100A
:1043AC000891B0F90C1006989DF8688081427CDD6C
:1043BC00B5F90E10914278DD062111FB080000289A
:1043CC0073DD02EBC80000286FDD03EB830396B2AC
:1043DC000C9306F108039BB2099100240D93052C54
:1043EC001CBF334B0C9A059616BF1B194FF00009D6
:1043FC0013F8029004961FFA88F30393039ABDF8FE
:10440C00183004FB023213FA84F312B21BB20A9274
:10441C0037460FFA88FA0B9319F0010F11D0B8F147
:10442C00010F2B6803D1D3F810B0079B14E0079A47
:10443C000192CDF800A0D3F824B0BDF9102053465A
:10444C0018E0079B089A934217D0B8F1010F2B681C
:10445C0007D1D3F810B013463AB20B992846D84777
:10446C000BE0089A0192CDF800A0BDF91420D3F806
:10447C0024B053460A992846D847049B039A134400
:10448C009BB20493059B13449BB2013705930D9B80
:10449C00BFB29F424FEA5909BED1099B013B01347F
:1044AC0013F0FF0364B2099399D10FB0BDE8F08FFC
:1044BC009C610D0030B50A2985B004460B4604D129
:1044CC00027E438A03EBC20323E00D2924D0057E30
:1044DC00B0F91220B0F910100295C58A0195858AA1
:1044EC000095FFF753FF227E238A91B201EB410026
:1044FC0003EB4003A07E1BB2238268B1B4F90C001D
:10450C006FF0050505FB0202934205DD638A03EBA0
:10451C00C103638200232382012005B030BD0182D8
:10452C0042827047002908BF012101767047C18281
:10453C0081827047407E7047B0F90C007047B0F92B
:10454C000E00704700F0D8BCF0B5447EBDF8145096
:10455C00022C08D0032C0FD0012C70D10489013C03
:10456C00A21A12B20CE04489013CA21A0489E41A82
:10457C00611A12B209B262E04489E41A611A09B2F2
:10458C00002A5BDBB0F90840944240F3908000298C
:10459C00BEBF5B181BB20021B0F90A00CC188442D4
:1045AC00C4BF431A1BB2002B40F38180C9B2C808A8
:1045BC003F4F02EBC01211F00701DBB207EB020414
:1045CC0017D0C1F10801C8B23A4983420E5C3FBF13
:1045DC00C3EB000EFF2141FA0EF10E40B95C012D28
:1045EC000CBF3143B1438342B95460D3181AC3B2E0
:1045FC008034072B17D9012D0CBFFF20002004F1AC
:10460C0080011A46083AD2B2072A01F8800C01F14F
:10461C008001F7D8A3F10802C2F3C402013204EB03
:10462C00C21403F00703002B41D0234AD25C237839
:10463C00012D0CBF134393432370F0BDF0BD002A32
:10464C0035DBB0F90A40944231DD0029BCBFC918F2
:10465C000BB2B0F90870B8BF0021CE18BE42C4BF6F
:10466C00631A1BB2002B22DDD01001EBC0111048D5
:10467C0002F007020144012000FA02F28542D2B294
:10468C0009D1013B1BB25C1C11D011F8010B10437A
:10469C0001F8010CF5E7D243D2B2013B1BB2581C16
:1046AC0005D011F8010B104001F8010CF5E7F0BD35
:1046BC003CDF032034DF03202CDF0320F0B5447EE5
:1046CC00BDF81450022C08D0032C0FD0012C12D1A1
:1046DC000489E41AA21A12B26DE00489013C611A31
:1046EC004489E41AA21A09B212B204E04489013CCA
:1046FC00611A09B25FE000295CDBB0F908408C421A
:10470C0040F39180002ABCBFD21813B2B0F90A0052
:10471C00B8BF0022D4188442C4BF831A1BB2002B2A
:10472C0040F38180D4B2404EDAB2E30801EBC311FE
:10473C0014F0070406EB010317D0C4F10804E0B22F
:10474C003A4C8242275C3FBFC2EB000EFF2444FA76
:10475C000EF42740745C012D0CBF3C43BC438242D9
:10476C00745460D3101AC2B28033072A17D9012DA2
:10477C000CBFFF24002403F1800011460839C9B294
:10478C00072900F8804C00F18000F7D8A2F108014D
:10479C00C1F3C401013103EBC11302F00702002A7B
:1047AC0041D02349895C1A78012D0CBF0A438A43F6
:1047BC001A70F0BDF0BD002935DBB0F90A408C420F
:1047CC0031DD002ABCBFD21813B2B0F90870B8BFE3
:1047DC000022D618BE42C4BFA31A1BB2002B22DD86
:1047EC00C81002EBC012104801F00701104401225E
:1047FC0002FA01F19542C9B209D15A1E13B25C1CDE
:10480C0011D010F8012B0A4300F8012CF5E7C9432D
:10481C00C9B25A1E13B25A1C05D010F8012B0A400B
:10482C0000F8012CF5E7F0BD3CDF032034DF03205A
:10483C002CDF0320F8B50D1E064614461F463FDB41
:10484C00FFF77AFE85423BDA002C39DB3046FFF766
:10485C0076FE844234DA3046FFF76CFE022827D10C
:10486C003189708901390138491B001B0DB204B222
:10487C0006E0012804D13389013B1B1B2C461DB2D9
:10488C000820012F94FBF0F000B20E4B04F007024D
:10489C0005EBC01104D197405A5C17435F54F8BD27
:1048AC00585C012707FA02F220EA02025A54F8BDBA
:1048BC000328DED17389013B5B1B25461CB2DFE765
:1048CC00F8BD00BF3CDF032038B5402204460D463E
:1048DC008021FFF745FD064B2360FF23637784F8A7
:1048EC002130E377A37784F82050204638BD00BFF1
:1048FC00A0660D0038B590F91D30013304460D4605
:10490C0028D090F92100012180B201F01CFA94F911
:10491C001F00002180B201F016FA94F92100002149
:10492C0080B201F010FA94F822302BB101F0B8F9F2
:10493C00294600F001FE05E02B460122A17F607F95
:10494C0001F01AFA94F92100012180B2BDE8384037
:10495C0001F0F9B901F07EF994F91B1000F04AFE50
:10496C0001F078F9036800219B68984701F072F90F
:10497C00036829469B68984701F06CF9BDE83840FC
:10498C0000F03FBE38B504460D46217790F91D3036
:10499C00C276013337D090F91F00012180B201F0AB
:1049AC00C1F994F92100012180B201F0BBF994F80E
:1049BC0022305BB994F91D00012180B201F0B2F9EB
:1049CC0094F91E00012180B201F0ACF994F8223068
:1049DC00EBB194F92100012180B201F0B4F901F09E
:1049EC005FF9012100F019FD01F05AF9102100F0D6
:1049FC007FFD01F055F9002100F020FD01F050F988
:104A0C0000F0FAFC03E001F025F900F0E9FD94F95F
:104A1C002000012180B201F085F994F920000121D8
:104A2C0080B201F090F9012000F0F5FE94F920001D
:104A3C00002180B201F087F90A2000F0ECFE94F915
:104A4C002000012180B201F07EF92046AE21FFF753
:104A5C0051FF2046D521FFF74DFF20468021FFF75F
:104A6C0049FF2046A821FFF745FF20463F21FFF7CD
:104A7C0041FF2046D321FFF73DFF20460021FFF7E1
:104A8C0039FF20464021FFF735FF8D212046FFF7E7
:104A9C0031FF012D0CBF102114212046FFF72AFFF6
:104AAC0020462021FFF726FF20460021FFF722FF9A
:104ABC002046A121FFF71EFF2046C821FFF71AFF51
:104ACC002046DA21FFF716FF20461221FFF712FFCE
:104ADC0081212046FFF70EFF012D0CBF9F21CF2116
:104AEC002046FFF707FFD9212046FFF703FF012DD2
:104AFC000CBF2221F1212046FFF7FCFE2046DB21D2
:104B0C00FFF7F8FE20464021FFF7F4FE2046A421D3
:104B1C00FFF7F0FE2046A621FFF7ECFE2046AF2162
:104B2C00BDE83840FFF7E6BE2DE9F04121210446EF
:104B3C00FFF7E0FE00212046FFF7DCFE7F21204638
:104B4C00FFF7D8FE22212046FFF7D4FE0021204695
:104B5C00FFF7D0FE07212046FFF7CCFE94F91D305D
:104B6C00DFF8BC80013335D094F92100012180B2EB
:104B7C0001F0E9F894F91F00012180B201F0E3F88B
:104B8C0094F92100002180B201F0DDF8012000F041
:104B9C0053F9002594F8223018F805602BB101F078
:104BAC007FF8314600F0C8FC05E033460122A17FB6
:104BBC00607F01F0E1F80135B5F5806FEAD1012095
:104BCC0000F03AF994F92100012180B2BDE8F041DE
:104BDC0001F0B9B8002501F03DF894F91B1000F074
:104BEC0009FD01F037F8036840219B6898470026BF
:104BFC0001F030F8AF190368BFB29B6818F80710C2
:104C0C0001369847102EF3D1103501F023F8ADB2D0
:104C1C0000F0F7FCB5F5806FDDD1BDE8F08100BF89
:104C2C003CDF03204FF480620021014801F049BAB7
:104C3C003CDF032000F060B908B5024B1B681B6811
:104C4C00019308BD4C02030008B5024B1B685B685E
:104C5C00019308BD4C02030008B5024B1B681B698D
:104C6C00019308BD4C02030008B5024B1B685B693D
:104C7C00019308BD4C02030008B5024B1B689B69ED
:104C8C00019308BD4C02030008B5024B1B68DB699D
:104C9C00019308BD4C02030008B5024B1B681B6A4C
:104CAC00019308BD4C02030008B5024B1B68DB687E
:104CBC00019308BD2802030008B5024B1B689B69D1
:104CCC00019308BD2802030008B5024B1B68DB6981
:104CDC00019308BD2802030008B5024B1B681B6A30
:104CEC00019308BD2802030008B5024B1B685B6AE0
:104CFC00019308BD2802030008B5024B1B689B6A90
:104D0C00019308BD2802030008B5024B1B68DB6A3F
:104D1C00019308BD2802030008B5024B1B681B6BEE
:104D2C00019308BD2802030008B5024B1B685B6B9E
:104D3C00019308BD2802030008B5024B1B681B6CCD
:104D4C00019308BD2802030008B5024B1B681B68C1
:104D5C00019308BD3C02030008B5024B1B68DB68DD
:104D6C00019308BD3C02030008B5024B1B681B698C
:104D7C00019308BD3C02030008B5024B1B685B693C
:104D8C00019308BD3C02030008B5024B1B689B69EC
:104D9C00019308BD3C02030008B5024B1B68DB699C
:104DAC00019308BD3C02030008B5024B1B681B6A4B
:104DBC00019308BD3C02030008B5024B1B689B6ABB
:104DCC00019308BD3C02030008B5024B1B685B69EC
:104DDC00019308BD6402030008B5024B1B689B6875
:104DEC00019308BD4802030008B5024B1B681B6900
:104DFC00019308BD4802030008B5024B1B685B69B0
:104E0C00019308BD4802030008B5024B1B685B6C9C
:104E1C00019308BD4802030008B5024B1B689B6C4C
:104E2C00019308BD4802030008B5024B1B685B6880
:104E3C00019308BD1802030008B5024B1B68DB6820
:104E4C00019308BD1802030008B5024B1B685B698F
:104E5C00019308BD1802030008B5024B1B681B68C0
:104E6C00019308BD3002030008B5024B1B689B6818
:104E7C00019308BD3002030008B5024B1B68DB68C8
:104E8C00019308BD3002030008B5024B1B681B6977
:104E9C00019308BD3002030008B5024B1B685B6927
:104EAC00019308BD3002030008B5024B1B68DB6997
:104EBC00019308BD3002030008B5024B1B681B6A46
:104ECC00019308BD3002030008B5024B1B685B6AF6
:104EDC00019308BD3002030008B5024B1B681B6C24
:104EEC00019308BD3002030008B5024B1B685B6CD4
:104EFC00019308BD3002030008B5024B1B681B6808
:104F0C00019308BD2C02030008B5024B1B689B687B
:104F1C00019308BD2C02030008B5024B1B68DB682B
:104F2C00019308BD2C02030008B5024B1B681B69DA
:104F3C00019308BD2C02030008B5024B1B689B684B
:104F4C00019308BD6802030008B5024B1B68DB68BF
:104F5C00019308BD6802030008B5024B1B685B6B2C
:104F6C00019308BD6002030008B5024B1B68DB6BA4
:104F7C00019308BD4402030008B5024B1B685B6833
:104F8C00019308BD4002030008B5024B1B689B68E7
:104F9C00019308BD4002030008B5024B1B68DB6897
:104FAC00019308BD4002030008B5024B1B681B6946
:104FBC00019308BD4002030008B5024B1B685B69F6
:104FCC00019308BD4002030008B5024B1B689B69A6
:104FDC00019308BD4002030008B5024B1B68DB6956
:104FEC00019308BD4002030008B5024B1B681B6A05
:104FFC00019308BD4002030008B5024B1B681B6BF4
:10500C00019308BD4002030008B5024B1B685B6BA3
:10501C00019308BD4002030008B5024B1B685B6896
:10502C00019308BD2002030008B5024B1B685B69A5
:10503C00019308BD2002030008B5034B1B68D3F88D
:10504C008830019308BD00002002030008B5034B13
:10505C001B68D3F89430019308BD000020020300B4
:10506C0008B5024B1B681B68019308BD1C020300AA
:10507C0008B5024B1B685B68019308BD1C0203005A
:10508C0000231A464068FFF777BF002202214068D0
:10509C00FFF782BF002211464068FFF775BF002260
:1050AC0011464068FFF780BF00231A461946406836
:1050BC00FFF782BF00231A4619464068FFF784BFEA
:1050CC00002281F001014068FFF786BF0022406892
:1050DC00FFF792BF002211464068FFF795BF0022F0
:1050EC0011464068FFF780BF2DE9F043002495B0CE
:1050FC0016460D46074600F04DFB214620220CA813
:10510C00009400F0DEFF40230C9321466B460CAA62
:10511C003046FFF719FF0446002844D1024601210E
:10512C006868FFF741FF0221804622466868FFF756
:10513C003BFF009E81462146002E34D0002932D1FF
:10514C007368022B02D00A2B09D02AE0B8F1000FA9
:10515C0027D071693846043100F049FB20E0B9F1E1
:10516C00000F1ED07469112201A800F0AAFF0623BB
:10517C008DF8143001AD04F108031834186859681F
:10518C002A4603C20833A3421546F7D101A906A843
:10519C0007AD00F00DFB0FCD3C1D0FC42B68237029
:1051AC000121F669C8E70098FFF7C6FE384615B02E
:1051BC00BDE8F083024B034A1A6000225A60704724
:1051CC00CCE30320D8660D00002211464068FFF79F
:1051DC00EBBE002211464068FFF706BF00221146C5
:1051EC004068FFF711BF00224068FFF705BF00229F
:1051FC0081F001014068FFF7EFBE00231A46194603
:10520C004068FFF7E1BE00231A4619464068FFF7D5
:10521C00D3BE002211464068FFF7B6BE0022022121
:10522C004068FFF7B9BE00231A464068FFF7A4BEDA
:10523C00024B04225A60024A1A607047D4E30320DE
:10524C000C670D00002211464068FFF7CDBE00220E
:10525C0011464068FFF7D8BE00224068FFF7CCBE6D
:10526C00002281F001014068FFF7B6BE00231A4608
:10527C0001214068FFF7A8BE00231A461946406872
:10528C00FFF79ABE002211464068FFF78DBE002240
:10529C0011464068FFF778BE002202214068FFF7F4
:1052AC007BBE00231A464068FFF766BE38B505463C
:1052BC0088B104684CB1A3681BB103222146204677
:1052CC0098471021204600F087FD28461421BDE8A0
:1052DC00384000F081BD38BD10B103685B681847D9
:1052EC00704710B503680446BBB15868FFF774FDEE
:1052FC0078B923685A7C12B95868FFF775FD236892
:10530C005868FFF779FD20680023236028B1FFF768
:10531C00CDFF206808B1FFF7C9FF204610BD38B596
:10532C000446D0F8C40108B1FEF7B1FED4F8C001B0
:10533C0008B1FFF771FDD4F8BC5135B12846FFF721
:10534C00D0FF0421284600F047FD206808B1FFF784
:10535C00C3FF204638BD000010B5044B044640F88E
:10536C00083BFFF7DCFF204610BD00BF40670D0077
:10537C0038B50E4C0E4B23600025022304F5E47067
:10538C006360A560C4F8C451C4F8C851FFF73CFD74
:10539C00084BC4F8CC5184F8D05123602046064AFF
:1053AC000649BDE8384000F00ABD00BFDCE303202D
:1053BC00D8660D0040670D00A4E3032065530D0073
:1053CC00704710B50C21044600F006FD204610BDB8
:1053DC000021FFF781BD0021FFF786BD10B5054BFD
:1053EC000360044601710846FFF75EFD0023A360CD
:1053FC00204610BD74670D0010B504460079FFF708
:10540C00E7FF48B920794FF6FF71FFF725FD2079AA
:10541C00BDE81040FFF7DFBF10BD38B5044600797A
:10542C000D46FFF7D5FF40B920792946FFF71CFD43
:10543C002079BDE83840FFF7CEBF38BD38B50446FB
:10544C0000790D46FFF7C4FF40B920792946FFF7D4
:10545C0013FD2079BDE83840FFF7BDBF38BD000013
:10546C00400830B51860002418688842E5B206D9A7
:10547C000134082C02D040081860F5E70725024BD0
:10548C005B5D137030BD00BF7C670D002DE9F041F2
:10549C0088B000230446007902930E461746FFF7A6
:1054AC0097FF054600BB94F804800146142203A81C
:1054BC0000F007FE0B232A4603A94046ADF80C303A
:1054CC00FFF702FD02AB0DF1070207FB06F1049892
:1054DC008DF80750FFF7C4FF20799DF80710FFF7F0
:1054EC00D3FC2079FFF777FF029808B0BDE8F08174
:1054FC0038B5044600790D46FFF76AFFC8B9A168B4
:10550C0071B10C4BC25CAA4202D001300828F9D10F
:10551C000130C0B2C14001222046FFF7B7FF03E0C3
:10552C0029462079FFF7B0FC2079BDE83840FFF719
:10553C0052BF38BD7C670D0038B5044600790D4666
:10554C00FFF746FF40B929462079FFF7A5FC054631
:10555C002079FFF740FF00E00025E8B238BD007964
:10556C00FFF7AABC7047F8B5064615460C468F18CF
:10557C00BC4206D0336814F8011B9B683046984730
:10558C00F6E72846F8BD0022007CFFF7A5BB0021FA
:10559C00007CFFF7A9BB0021007CFFF7ADBB00210D
:1055AC00007CFFF7B1BB0021007CFFF7B5BB10B549
:1055BC001421044600F010FC204610BD10B5044622
:1055CC00002363604FF47A73A360044B2174084684
:1055DC0023601146FFF7B0FB204610BD8C670D0011
:1055EC0000231A461946007CFFF75EBB0022007CA4
:1055FC00FFF762BBC9B2FFF7F9BF0022007CFFF7CF
:10560C0063BB0121FFF7F9BF0021007CFFF78CBBC6
:10561C0041747047704708B50021007CFFF72CFBE4
:10562C0030EA200028BF4FF0FF3008BD08B501213B
:10563C00007CFFF721FB30EA200028BF4FF0FF3041
:10564C0008BD08B5007CFFF70FFB20EAE07008BD31
:10565C0008B5007CFFF700FB20EAE07008BD007C79
:10566C00FFF71ABB10B51421044600F0B5FB204619
:10567C0010BD38B50446007C0D46FFF7F5FA00283E
:10568C0001DC607C28B12946207CFFF7FDFA20EA7A
:10569C00E07038BD10B50446002363604FF47A7394
:1056AC00A360054B236001230846217463741146E3
:1056BC00FFF7C2FA204610BDB4670D000022007C33
:1056CC00FFF7C2BA10B514220446002100F0F9FC11
:1056DC00204610BD30B50E4D87B001A8FFF7F2FF84
:1056EC00296811F0010410D12846FEF7DDFC60B1E9
:1056FC0001AA21460748FFF7CDFF2846FEF7D9FC43
:10570C00054A0649034800F05AFB024807B030BD71
:10571C00B0E50320B4E50320A4E3032021560D00DB
:10572C00704710B51821044600F056FB204610BDFA
:10573C00F0B5037D062B8DB00E4600F104074FF03B
:10574C00000402D000F1080518E00CAD394605F84C
:10575C00304D2F232A460A20FFF736FB284600F04F
:10576C00E1FC33680246DB682946304698470FE077
:10577C0024B12E21304600F029F9044415F8011DFE
:10578C000A22304600F025F9BD420444F0D12046EF
:10579C000DB0F0BD10B5054B0446112240F8043B8A
:1057AC00002100F08EFC204610BD00BFE4670D0008
:1057BC000346074A10B543F8042B01F1100251F8C7
:1057CC00044B43F8044B9142F9D10A781A7010BD7E
:1057DC00E4670D0010B59DF8084044EA032343EA42
:1057EC00024242EA016104234160037510BD37B5E2
:1057FC000D788B784A78C97800912946FFF7EAFF33
:10580C0003B030BD10B58368044613B103220146C2
:10581C009847204610BD0021FFF706BC08B50C4B7D
:10582C0033B1FFF757FF03681B699847002809DC61
:10583C00084B63B100F066F903681B6998470028B0
:10584C0003DC08BDAFF30080F2E7AFF3008008BDC6
:10585C00000000000000000008B5FFF7DFFFFFF7B5
:10586C00F3FA014B186008BD38E703200248034ADD
:10587C000349121A00F01ABC00F4032004F40320AC
:10588C00106A0D0007B5002300931A466FF07701DC
:10589C00FFF7DCFB03B05DF804FB000007B54388A1
:1058AC000A2B08D0502B09D1094B1B683BB103B014
:1058BC005DF804EB1847FFF7E5FF06E000230093C3
:1058CC001A466FF07701FFF7C1FB03B05DF804FBDC
:1058DC00C8E5032038B5104C104D2368AB42104B73
:1058EC000CBF012200221A7002D0FFF7BFFF256007
:1058FC00FFF79AFA044600F0EDFB0A4B13B1204671
:10590C00AFF3008000210748FFF72EFB002106486B
:10591C00BDE83840FFF790BB00F403201E1C279A0B
:10592C00CCE5032000000000A9580D0010B504467A
:10593C00FFF768FF204610BD0348044A04490023C2
:10594C00836000F03CBA00BFD0E50320A4E3032041
:10595C0039590D00024B1A68024B1A60704700BF90
:10596C003CE30320E0E50320014B024A1A60704738
:10597C00E4E503208C680D00F8B506460D468F183B
:10598C000024BD420CD0336815F8011B9B683046CF
:10599C009847002801DB0444F3E7002C08BF0446B9
:1059AC002046F8BD70B505460C46084649B100F0D6
:1059BC00B9FB2B68024621462846DB68BDE87040DF
:1059CC00184770BD08B5FFF7EDFF08BD03689B686D
:1059DC00184730B58BB00B4600218DF82410012AE6
:1059EC0098BF0A220DF12304B3FBF2F505FB123329
:1059FC0003F0FF03092B94BF30333733DBB221465E
:105A0C0004F801392B46002DEED1FFF7CBFF0BB07C
:105A1C0030BD10B50446006808B1FFF7FDF920460B
:105A2C0010BD000010B5064C002320462360FFF784
:105A3C00EBF92046034A0449BDE8104000F0BFB919
:105A4C00E8E50320A4E303201F5A0D0070474174BE
:105A5C00704708B5007CFFF7AFF920EAE07008BD8D
:105A6C0008B5007CFFF780F920EAE07008BD08B5A6
:105A7C00007CFFF789F930EA200028BF4FF0FF3097
:105A8C0008BD08B5007CFFF777F930EA200028BF85
:105A9C004FF0FF3008BD007CFFF77EB910B5142124
:105AAC00044600F099F9204610BD70B5457C0446BB
:105ABC000E4625B9007CFFF77FF9002805DD31463D
:105ACC00207CBDE87040FFF747B9284670BD000048
:105ADC0010B5044608461146002262604FF47A72F3
:105AEC00A260054A22600122207462741A46FFF7F4
:105AFC002BF9204610BD00BF04690D00007CFFF798
:105B0C0053B9000038B50C4D296811F0010411D1BE
:105B1C002846FEF7C9FA68B1084A094B09482146DC
:105B2C00FFF7D6FF2846FEF7C4FA074A074905488F
:105B3C0000F045F9034838BD84E6032088E60320CD
:105B4C0000E60320ECE50320A4E30320595A0D00E2
:105B5C0010B50446006818B1FFF78AFA00232360D9
:105B6C0010BD10B50446FFF7F3FF204610BD000032
:105B7C0010B5094C00204FF6FF732060A080A07177
:105B8C0020816381FFF748FA2046044A0449BDE8A6
:105B9C00104000F014B900BF0CE70320A4E303206D
:105BAC006F5B0D00002211464068FFF71DBA002202
:105BBC0011464068FFF728BA00224068FFF71CBA6C
:105BCC00002281F001014068FFF706BA00231A4653
:105BDC0019464068FFF7F8B900231A461946406881
:105BEC00FFF7EAB9002211464068FFF7DDB9002241
:105BFC0011464068FFF7C8B9002202214068FFF740
:105C0C00CBB900231A464068FFF7B6B9024B032202
:105C1C005A60024A1A60704718E7032034690D0075
:105C2C0070B5044614252A46094E002100F049FAA5
:105C3C00258020253146A5602561284600F0CEF848
:105C4C0031466060284600F0C9F8E060204670BD1F
:105C5C0060690D0030B50E4D296811F0010487B054
:105C6C0013D12846FEF720FA78B101A8FFF7D8FF28
:105C7C0001AA21460748FFF7A1FC2846FEF719FAAE
:105C8C00054A0649034800F09AF8024807B030BDAF
:105C9C0020E7032024E70320A4E3032071550D0023
:105CAC0038B50B4D296811F001040FD12846FEF7C9
:105CBC00FBF958B121460748FFF790FB2846FEF741
:105CCC00F8F9054A0549034800F079F8014838BD50
:105CDC0048E703203CE70320A4E30320CD530D0049
:105CEC0010B50446FFF7DCFFFFF739FC28B1A4F12F
:105CFC000B03022B01D8002010BDFFF7ABFFFFF701
:105D0C0083FC08B1012CF6D9FFF7FCFEFFF7F6FE79
:105D1C0018B1A4F10903012BEDD9232C8CBF002061
:105D2C00012010BD232838B504460D460AD8FF299A
:105D3C0008D0FFF7D5FF28B129462046BDE83840EA
:105D4C00FFF7E2B838BD38B504460D46FFF7E4F866
:105D5C00FF2810D0062804D84D2323FA00F0C307DF
:105D6C0009D42046FFF7BCFF28B129462046BDE8E0
:105D7C003840FFF7D9B838BD2DE9F04190461E46A2
:105D8C00072407460D46B8F1000F04D1C4F10701F2
:105D9C0046FA01F101E046FA04F101F0010138463E
:105DAC00FFF7D1FF01212846FFF7CDFF0021284640
:105DBC00FFF7C9FF14F1FF34E5D2BDE8F0810B46C3
:105DCC000146184600F064B9024B1868BFF35F8FA8
:105DDC00704700BF4CE70320FEF757B900F000B83E
:105DEC0010B5002814BF044601242046FFF738F9EB
:105DFC0020B9FFF7E9FF08B18047F6E710BD0000B6
:105E0C00184B1A68D1075CBF01221A60164B1A682E
:105E1C00D2075CBF01221A60144B1A68D0075CBF12
:105E2C0001221A60124B1A68D1075CBF01221A605A
:105E3C00104B1A68D2075CBF01221A600E4B1A680D
:105E4C00D0075CBF01221A600C4B1A68D1075CBFEB
:105E5C0001221A600A4B1A68D2075CBF01221A6031
:105E6C00704700BF6CE7032068E7032064E703205A
:105E7C0060E703205CE7032058E7032054E7032086
:105E8C0050E70320244B1A68D0075CBF01221A602C
:105E9C00224B1A68D1075CBF01221A60204B1A688A
:105EAC00D2075CBF01221A601E4B1A68D0075CBF78
:105EBC0001221A601C4B1A68D1075CBF01221A60C0
:105ECC001A4B1A68D2075CBF01221A60184B1A6869
:105EDC00D0075CBF01221A60164B1A68D1075CBF51
:105EEC0001221A60144B1A68D2075CBF01221A6097
:105EFC00124B1A68D0075CBF01221A60104B1A684B
:105F0C00D1075CBF01221A600E4B1A68D2075CBF26
:105F1C0001221A60704700BF9CE7032098E703201A
:105F2C0094E7032090E703208CE7032088E7032005
:105F3C0084E7032080E703207CE7032078E7032035
:105F4C0074E7032070E70320244B1A68D0075CBF6A
:105F5C0001221A60224B1A68D1075CBF01221A6019
:105F6C00204B1A68D2075CBF01221A601E4B1A68BC
:105F7C00D0075CBF01221A601C4B1A68D1075CBFAA
:105F8C0001221A601A4B1A68D2075CBF01221A60F0
:105F9C00184B1A68D0075CBF01221A60164B1A689E
:105FAC00D1075CBF01221A60144B1A68D2075CBF80
:105FBC0001221A60124B1A68D0075CBF01221A60CA
:105FCC00104B1A68D1075CBF01221A600E4B1A687D
:105FDC00D2075CBF01221A60704700BFCCE70320D8
:105FEC00C8E70320C4E70320C0E70320BCE7032075
:105FFC00B8E70320B4E70320B0E70320ACE70320A5
:10600C00A8E70320A4E70320A0E70320184B1A6895
:10601C00D1075CBF01221A60164B1A68D2075CBF0D
:10602C0001221A60144B1A68D0075CBF01221A6057
:10603C00124B1A68D1075CBF01221A60104B1A6808
:10604C00D2075CBF01221A600E4B1A68D0075CBFE6
:10605C0001221A600C4B1A68D1075CBF01221A602E
:10606C000A4B1A68D2075CBF01221A60704700BF46
:10607C00ECE70320E8E70320E4E70320E0E7032054
:10608C00DCE70320D8E70320D4E70320D0E7032084
:10609C0010B5054C13462CB10A4601460220AFF34D
:1060AC00008010BD204610BD0000000010B5431E3E
:1060BC000A44914204D011F8014B03F8014FF8E760
:1060CC0010BD02440346934202D003F8011BFAE7C9
:1060DC007047000038B5124B1C68A36B0546D3B94A
:1060EC001820FEF7BDFF43F20E33A06303804AF67F
:1060FC00CD33438041F2342383804EF26D63C380F1
:10610C004DF6EC630381052343810B23838101222C
:10611C000023C0E90423A36B00221D615A6138BD22
:10612C00A0E30320034613F8012B002AFBD1181A15
:10613C00013870471D400D0059400D0085400D0081
:10614C0089400D000000000048656C6C6F2C2077B6
:10615C006F726C6421000000000000000000000061
:10616C000000000000000000C1440D0085590D0026
:10617C00A1400D00C1410D00E1420D00FD420D009A
:10618C0081420D0017430D004F430D006B430D0072
:10619C0000000000003E5B4F5B3E3E6B4F6B3E1CB5
:1061AC003E7C3E1C183C7E3C181C577D571C1C5ECC
:1061BC007F5E1C00183C1800FFE7C3E7FF001824A3
:1061CC001800FFE7DBE7FF30483A060E262979294D
:1061DC0026407F050507407F05253F5A3CE73C5A82
:1061EC007F3E1C1C08081C1C3E7F14227F22145F5F
:1061FC005F005F5F06097F017F006689956A6060BA
:10620C0060606094A2FFA29408047E040810207EB3
:10621C00201008082A1C08081C2A08081E10101038
:10622C00100C1E0C1E0C30383E3830060E3E0E067E
:10623C00000000000000005F0000000700070014D1
:10624C007F147F14242A7F2A122313086462364990
:10625C005620500008070300001C22410000412278
:10626C001C002A1C7F1C2A08083E0808008070307D
:10627C0000080808080800006060002010080402EC
:10628C003E5149453E00427F4000724949494621F2
:10629C0041494D331814127F1027454545393C4A66
:1062AC00494931412111090736494949364649497D
:1062BC00291E0000140000004034000000081422C5
:1062CC004114141414140041221408020159090633
:1062DC003E415D594E7C1211127C7F494949363E34
:1062EC00414141227F4141413E7F494949417F091A
:1062FC000909013E414151737F0808087F00417F25
:10630C0041002040413F017F081422417F40404022
:10631C00407F021C027F7F0408107F3E4141413EBA
:10632C007F090909063E4151215E7F09192946263C
:10633C004949493203017F01033F4040403F1F2040
:10634C0040201F3F4038403F631408146303047817
:10635C0004036159494D43007F4141410204081037
:10636C0020004141417F0402010204404040404072
:10637C00000307080020545478407F2844443838E0
:10638C0044444428384444287F3854545418000852
:10639C007E090218A4A49C787F0804047800447D2C
:1063AC0040002040403D007F1028440000417F40C9
:1063BC00007C047804787C0804047838444444381D
:1063CC00FC1824241818242418FC7C0804040848FD
:1063DC005454542404043F44243C4040207C1C204E
:1063EC0040201C3C4030403C44281028444C9090A9
:1063FC00907C4464544C4400083641000000770003
:10640C0000004136080002010204023C2623263C0F
:10641C001EA1A161123A4040207A3854545559219A
:10642C005555794121545478412155547840205484
:10643C005579400C1E5272123955555559395454D0
:10644C00545939555454580000457C410002457D3F
:10645C00420001457C40F0292429F0F0282528F041
:10646C007C545545002054547C547C0A097F493295
:10647C00494949323248484832324A4848303A4110
:10648C0041217A3A42402078009DA0A07D394444B5
:10649C0044393D4040403D3C24FF2424487E494340
:1064AC00662B2FFC2F2BFF0929F620C0887E0903B1
:1064BC0020545479410000447D413048484A3238D8
:1064CC004040227A007A0A0A727D0D19317D262904
:1064DC00292F28262929292630484D4020380808FC
:1064EC00080808080808382F10C8ACBA2F10283430
:1064FC00FA00007B000008142A142222142A140823
:10650C00AA005500AAAA55AA55AA000000FF00101F
:10651C001010FF00141414FF001010FF00FF1010D7
:10652C00F010F0141414FC001414F700FF0000FF1A
:10653C0000FF1414F404FC141417101F10101F1077
:10654C001F1414141F00101010F0000000001F1076
:10655C001010101F10101010F010000000FF101081
:10656C0010101010101010FF10000000FF1400008D
:10657C00FF00FF00001F10170000FC04F414141798
:10658C0010171414F404F40000FF00F7141414147E
:10659C00141414F700F7141414171410101F101FF0
:1065AC00141414F4141010F010F000001F101F003D
:1065BC0000001F14000000FC140000F010F010107C
:1065CC00FF10FF141414FF141010101F0000000013
:1065DC00F010FFFFFFFFFFF0F0F0F0F0FFFFFF0007
:1065EC0000000000FFFF0F0F0F0F0F38444438441A
:1065FC007C2A2A3E147E02020606027E027E02637A
:10660C00554941633844443C04407E201E20060218
:10661C007E020299A5E7A5991C2A492A1C4C7201F5
:10662C00724C304A4D4D303048784830BC625A4636
:10663C003D3E494949007E0101017E2A2A2A2A2A27
:10664C0044445F444440514A444040444A51400011
:10665C0000FF0103E080FF000008086B6B08361296
:10666C00362436060F090F0600001818000000101B
:10667C0010003040FF0101001F01011E00191D1701
:10668C0012003C3C3C3C00000000000000000000FC
:10669C0000000000C5400D0085410D00C1440D00F7
:1066AC0085590D0041480D00C1410D00C9460D0032
:1066BC0055450D0081420D0017430D004F430D0051
:1066CC006B430D0000000000000000008D500D0019
:1066DC0097500D00A1500D00AB500D00B5500D00A2
:1066EC00C1500D00CD500D00D9500D00E1500D00E2
:1066FC00EB500D00F5500D000000000000000000F4
:10670C0033520D0029520D001F520D00D5510D00B2
:10671C0013520D0007520D00FB510D00F3510D00EB
:10672C00E9510D00DF510D00F5500D000000000087
:10673C0000000000AF520D00A5520D009B520D0041
:10674C0091520D0085520D0079520D006D520D00C5
:10675C0065520D005B520D0051520D00F5500D00AD
:10676C000000000000000000CD530D00CF530D00C1
:10677C00000810182028303800000000000000002D
:10678C0071550D00BB550D0093550D0073550D0043
:10679C009B550D00A3550D00AB550D00B3550D00C9
:1067AC00000000000000000021560D0071560D0085
:1067BC007F560D0085590D005D560D0023560D00BA
:1067CC0039560D006B560D004F560D001D560D0021
:1067DC0000000000000000003D570D002D570D007B
:1067EC002F570D005A00252B3033643A2530327563
:1067FC000025592D256D2D25645425483A254D3AF3
:10680C002553257A0061736374696D650062617547
:10681C00640053657269616C0053657269616C3117
:10682C00007479706500706172616D00636D640055
:10683C00696400686E64007374726D0066696C74D0
:10684C00006C766C0061646448616E646C65720007
:10685C0072656D6F766548616E646C657200656E0D
:10686C00756D48616E646C657273004A534F4E537C
:10687C00747265616D4C6F6748616E646C65720013
:10688C0061707000253031307520005D200025646A
:10689C00002C200028293A2000205B00636F6465DF
:1068AC00203D200025690064657461696C73203D8E
:1068BC0020000D0A0066006C6E00666E00636F644B
:1068CC00650064657461696C006E6F6E650074724E
:1068DC0061636500696E666F007761726E00657248
:1068EC00726F720070616E696300616C6C00000005
:1068FC000000000000000000595A0D00A95A0D00BC
:10690C00B75A0D0085590D006D5A0D008F5A0D00A8
:10691C007B5A0D00A35A0D005B5A0D005F5A0D00F7
:10692C0000000000000000000F5C0D00055C0D0075
:10693C00FB5B0D00F15B0D00E55B0D00D95B0D0001
:10694C00CD5B0D00C55B0D00BB5B0D00B15B0D009D
:10695C00F5500D00000000000000000000000000D9
:10696C00000000000000000000000000000000001B
:10697C00000000000000000000000000000000000B
:10698C0000000000000000000000000000000000FB
:10699C0000000000000000000000000000000000EB
:1069AC0000000000000000000000000000000000DB
:1069BC0000000000000000004300000095410D00A5
:1069CC0051450D00414C0D00C1510D003D520D00C3
:1069DC007D530D0045590D0061590D0075590D0081
:1069EC00315A0D007D5B0D00195C0D000D5E0D0024
:1069FC00915E0D00555F0D0019600D000000000048
:046A0C000000000086
:046A10000000000082
:106A1400E8030000000103070F1F3F7F0080C0E070
:106A2400F0F8FCFE00000000000000000000000080
:106A34000000000000000000000000000000000052
:106A44000000000000000000000000000000000042
:106A54000000000000000000000000000000000032
:106A640000000080808000000000000000000000A2
:106A740000000000008080C0C00000000000000092
:106A84000000000000000000000000000000000002
:106A940000000000000000000000000000000000F2
:106AA40000000000000000000000000000000000E2
:106AB400000000000000000080C0E0F0F8FCF8E0F6
:106AC40000000000000000000000000000000000C2
:106AD40000808080808000808000000000808080B2
:106AE400808000FFFFFF00000000808080800000A5
:106AF4008080000080FFFF80800080800080808094
:106B0400800080800000000000808000008C8E8463
:106B1400000080F8F8F88000000000000000000089
:106B240000000000F0F0F0F0F0F0F0F0F0F0F0F021
:106B3400E0E0C08000E0FCFEFFFFFF7FFFFFFFFFFF
:106B4400FF0000000000000000000000000000FE44
:106B5400FFC70101010183FFFF00007CFEC70101A3
:106B6400010183FFFFFF0038FEC78301010183C7D2
:106B7400FFFF000001FFFF010100FFFF070101010A
:106B840000007FFF80000000FFFF7F0000FFFFFF89
:106B9400000001FFFFFF01000000000000000000F2
:106BA40000000000030F3F7F7FFFFFFFFFFFFFFF99
:106BB400E7C7C78F8F9FBFFFFFC3C0F0FFFFFFFF73
:106BC400FFFCFCFCFCFCFCFCFCF8F8F0F0E0C00072
:106BD4000103030303030103030000000001030393
:106BE4000303010103010000000103030303010186
:106BF400030300000003030000000303000000007F
:106C0400000000010303030303010000000103016A
:106C14000000000303010000000000000000000069
:106C24000000000000000080C0E0F0F9FFFFFFFF5B
:106C3400FF3F1F0F87C7F7FFFF1F1F3DFCF8F8F842
:106C4400F87C7DFFFFFFFFFFFFFFFF7F3F0F070083
:106C540030300000000000000000000000000000D0
:106C64000000000000000000FEFEFC000000000028
:106C74000000000000000000000000000000000010
:106C840000E0C00000000000000000000000303000
:106C940000000000000000000000000000000000F0
:106CA4000000000000C0FEFFFFFFFFFFFFFFFFFF2B
:106CB4007F7F3F1F0F071F7FFFFFF8F8FFFFFFFFD6
:106CC400FFFEF8E0000000010000000000000000EA
:106CD400FEFE000000FCFEFC0C06060EFCF80000A4
:106CE400F0F81C0E0606060CFFFFFF0000FEFE0077
:106CF400000000FCFEFC00183C7E66E6CE8400002A
:106D040006FFFF0606FCFEFC0C0606060000FEFE5F
:106D14000000C0F8FC4E4646464E7C7840183C764F
:106D2400E6CECC800000000000000000000000005F
:106D3400000000000000000001070F1F1F3F3F3F3D
:106D44003F1F0F03000000000000000000000000CF
:106D54000F0F0000000F0F0F000000000F0F0000C6
:106D640003070E0C18180C060F0F0F0000010F0E6E
:106D74000C180C0F070100040E0C180C0F07000070
:106D8400000F0F00000F0F0F0000000000000F0F96
:106D940000000007070C0C181C0C060600040E0C5F
:106DA400180C0F07000000000000000000000000A5
:106DB40000000000000000000000000000000000CF
:106DC40000000000000000000000000000000000BF
:106DD40000000000000000000000000000000000AF
:106DE400000000000000000000000000000000009F
:106DF400000000000000000000000000000000008F
:106E0400000000000000000000000000000000007E
:106E1400000000000000000000000000000000006E
:106E24000000000011680D000000000064690D00FE
:106E340084690D00A4690D0000000000000000003A
:106E44000000000000000000C4690D000000000004
:106E5400000000000000000000000000000000002E
:106E6400000000000000000000000000000000001E
:106E7400000000000000000000000000000000000E
:0C6E8400000000000000000040E30320BC
:106E9000FFFFFFFF00000102030405060708090ABF
:106EA0000B0C0D0E0F101112131415161718191ABA
:086EB0001B1C1D1E1F20280001
:046EB80078563412C2
:04000003D000401CCD
:00000001FF
